{
  "_format": "hh-sol-artifact-1",
  "contractName": "PiggycellToken",
  "sourceName": "contracts/Piggycell.sol",
  "abi": [
    {
      "inputs": [
        {
          "internalType": "address",
          "name": "initialOwner",
          "type": "address"
        },
        {
          "internalType": "uint256",
          "name": "initialSupply",
          "type": "uint256"
        }
      ],
      "stateMutability": "nonpayable",
      "type": "constructor"
    },
    {
      "inputs": [
        {
          "internalType": "address",
          "name": "spender",
          "type": "address"
        },
        {
          "internalType": "uint256",
          "name": "allowance",
          "type": "uint256"
        },
        {
          "internalType": "uint256",
          "name": "needed",
          "type": "uint256"
        }
      ],
      "name": "ERC20InsufficientAllowance",
      "type": "error"
    },
    {
      "inputs": [
        {
          "internalType": "address",
          "name": "sender",
          "type": "address"
        },
        {
          "internalType": "uint256",
          "name": "balance",
          "type": "uint256"
        },
        {
          "internalType": "uint256",
          "name": "needed",
          "type": "uint256"
        }
      ],
      "name": "ERC20InsufficientBalance",
      "type": "error"
    },
    {
      "inputs": [
        {
          "internalType": "address",
          "name": "approver",
          "type": "address"
        }
      ],
      "name": "ERC20InvalidApprover",
      "type": "error"
    },
    {
      "inputs": [
        {
          "internalType": "address",
          "name": "receiver",
          "type": "address"
        }
      ],
      "name": "ERC20InvalidReceiver",
      "type": "error"
    },
    {
      "inputs": [
        {
          "internalType": "address",
          "name": "sender",
          "type": "address"
        }
      ],
      "name": "ERC20InvalidSender",
      "type": "error"
    },
    {
      "inputs": [
        {
          "internalType": "address",
          "name": "spender",
          "type": "address"
        }
      ],
      "name": "ERC20InvalidSpender",
      "type": "error"
    },
    {
      "inputs": [
        {
          "internalType": "address",
          "name": "owner",
          "type": "address"
        }
      ],
      "name": "OwnableInvalidOwner",
      "type": "error"
    },
    {
      "inputs": [
        {
          "internalType": "address",
          "name": "account",
          "type": "address"
        }
      ],
      "name": "OwnableUnauthorizedAccount",
      "type": "error"
    },
    {
      "anonymous": false,
      "inputs": [
        {
          "indexed": true,
          "internalType": "address",
          "name": "owner",
          "type": "address"
        },
        {
          "indexed": true,
          "internalType": "address",
          "name": "spender",
          "type": "address"
        },
        {
          "indexed": false,
          "internalType": "uint256",
          "name": "value",
          "type": "uint256"
        }
      ],
      "name": "Approval",
      "type": "event"
    },
    {
      "anonymous": false,
      "inputs": [
        {
          "indexed": true,
          "internalType": "address",
          "name": "user",
          "type": "address"
        }
      ],
      "name": "AuthorizedUserAdded",
      "type": "event"
    },
    {
      "anonymous": false,
      "inputs": [
        {
          "indexed": true,
          "internalType": "address",
          "name": "user",
          "type": "address"
        }
      ],
      "name": "AuthorizedUserRemoved",
      "type": "event"
    },
    {
      "anonymous": false,
      "inputs": [
        {
          "indexed": true,
          "internalType": "address",
          "name": "previousOwner",
          "type": "address"
        },
        {
          "indexed": true,
          "internalType": "address",
          "name": "newOwner",
          "type": "address"
        }
      ],
      "name": "OwnershipTransferred",
      "type": "event"
    },
    {
      "anonymous": false,
      "inputs": [
        {
          "indexed": true,
          "internalType": "address",
          "name": "by",
          "type": "address"
        },
        {
          "indexed": true,
          "internalType": "address",
          "name": "from",
          "type": "address"
        },
        {
          "indexed": false,
          "internalType": "uint256",
          "name": "amount",
          "type": "uint256"
        }
      ],
      "name": "TokensBurned",
      "type": "event"
    },
    {
      "anonymous": false,
      "inputs": [
        {
          "indexed": true,
          "internalType": "address",
          "name": "by",
          "type": "address"
        },
        {
          "indexed": true,
          "internalType": "address",
          "name": "to",
          "type": "address"
        },
        {
          "indexed": false,
          "internalType": "uint256",
          "name": "amount",
          "type": "uint256"
        }
      ],
      "name": "TokensMinted",
      "type": "event"
    },
    {
      "anonymous": false,
      "inputs": [
        {
          "indexed": true,
          "internalType": "address",
          "name": "from",
          "type": "address"
        },
        {
          "indexed": true,
          "internalType": "address",
          "name": "to",
          "type": "address"
        },
        {
          "indexed": false,
          "internalType": "uint256",
          "name": "value",
          "type": "uint256"
        }
      ],
      "name": "Transfer",
      "type": "event"
    },
    {
      "inputs": [],
      "name": "MAX_SUPPLY",
      "outputs": [
        {
          "internalType": "uint256",
          "name": "",
          "type": "uint256"
        }
      ],
      "stateMutability": "view",
      "type": "function"
    },
    {
      "inputs": [
        {
          "internalType": "address",
          "name": "user",
          "type": "address"
        }
      ],
      "name": "addAuthorizedUser",
      "outputs": [],
      "stateMutability": "nonpayable",
      "type": "function"
    },
    {
      "inputs": [
        {
          "internalType": "address",
          "name": "owner",
          "type": "address"
        },
        {
          "internalType": "address",
          "name": "spender",
          "type": "address"
        }
      ],
      "name": "allowance",
      "outputs": [
        {
          "internalType": "uint256",
          "name": "",
          "type": "uint256"
        }
      ],
      "stateMutability": "view",
      "type": "function"
    },
    {
      "inputs": [
        {
          "internalType": "address",
          "name": "spender",
          "type": "address"
        },
        {
          "internalType": "uint256",
          "name": "value",
          "type": "uint256"
        }
      ],
      "name": "approve",
      "outputs": [
        {
          "internalType": "bool",
          "name": "",
          "type": "bool"
        }
      ],
      "stateMutability": "nonpayable",
      "type": "function"
    },
    {
      "inputs": [
        {
          "internalType": "address",
          "name": "",
          "type": "address"
        }
      ],
      "name": "authorizedUsers",
      "outputs": [
        {
          "internalType": "bool",
          "name": "",
          "type": "bool"
        }
      ],
      "stateMutability": "view",
      "type": "function"
    },
    {
      "inputs": [
        {
          "internalType": "address",
          "name": "account",
          "type": "address"
        }
      ],
      "name": "balanceOf",
      "outputs": [
        {
          "internalType": "uint256",
          "name": "",
          "type": "uint256"
        }
      ],
      "stateMutability": "view",
      "type": "function"
    },
    {
      "inputs": [
        {
          "internalType": "uint256",
          "name": "amount",
          "type": "uint256"
        }
      ],
      "name": "burn",
      "outputs": [],
      "stateMutability": "nonpayable",
      "type": "function"
    },
    {
      "inputs": [],
      "name": "decimals",
      "outputs": [
        {
          "internalType": "uint8",
          "name": "",
          "type": "uint8"
        }
      ],
      "stateMutability": "view",
      "type": "function"
    },
    {
      "inputs": [],
      "name": "getOwner",
      "outputs": [
        {
          "internalType": "address",
          "name": "",
          "type": "address"
        }
      ],
      "stateMutability": "view",
      "type": "function"
    },
    {
      "inputs": [
        {
          "internalType": "address",
          "name": "user",
          "type": "address"
        }
      ],
      "name": "isAuthorized",
      "outputs": [
        {
          "internalType": "bool",
          "name": "",
          "type": "bool"
        }
      ],
      "stateMutability": "view",
      "type": "function"
    },
    {
      "inputs": [
        {
          "internalType": "address",
          "name": "to",
          "type": "address"
        },
        {
          "internalType": "uint256",
          "name": "amount",
          "type": "uint256"
        }
      ],
      "name": "mint",
      "outputs": [],
      "stateMutability": "nonpayable",
      "type": "function"
    },
    {
      "inputs": [],
      "name": "name",
      "outputs": [
        {
          "internalType": "string",
          "name": "",
          "type": "string"
        }
      ],
      "stateMutability": "view",
      "type": "function"
    },
    {
      "inputs": [],
      "name": "owner",
      "outputs": [
        {
          "internalType": "address",
          "name": "",
          "type": "address"
        }
      ],
      "stateMutability": "view",
      "type": "function"
    },
    {
      "inputs": [
        {
          "internalType": "address",
          "name": "user",
          "type": "address"
        }
      ],
      "name": "removeAuthorizedUser",
      "outputs": [],
      "stateMutability": "nonpayable",
      "type": "function"
    },
    {
      "inputs": [],
      "name": "renounceOwnership",
      "outputs": [],
      "stateMutability": "nonpayable",
      "type": "function"
    },
    {
      "inputs": [],
      "name": "symbol",
      "outputs": [
        {
          "internalType": "string",
          "name": "",
          "type": "string"
        }
      ],
      "stateMutability": "view",
      "type": "function"
    },
    {
      "inputs": [],
      "name": "totalSupply",
      "outputs": [
        {
          "internalType": "uint256",
          "name": "",
          "type": "uint256"
        }
      ],
      "stateMutability": "view",
      "type": "function"
    },
    {
      "inputs": [
        {
          "internalType": "address",
          "name": "to",
          "type": "address"
        },
        {
          "internalType": "uint256",
          "name": "value",
          "type": "uint256"
        }
      ],
      "name": "transfer",
      "outputs": [
        {
          "internalType": "bool",
          "name": "",
          "type": "bool"
        }
      ],
      "stateMutability": "nonpayable",
      "type": "function"
    },
    {
      "inputs": [
        {
          "internalType": "address",
          "name": "from",
          "type": "address"
        },
        {
          "internalType": "address",
          "name": "to",
          "type": "address"
        },
        {
          "internalType": "uint256",
          "name": "value",
          "type": "uint256"
        }
      ],
      "name": "transferFrom",
      "outputs": [
        {
          "internalType": "bool",
          "name": "",
          "type": "bool"
        }
      ],
      "stateMutability": "nonpayable",
      "type": "function"
    },
    {
      "inputs": [
        {
          "internalType": "address",
          "name": "newOwner",
          "type": "address"
        }
      ],
      "name": "transferOwnership",
      "outputs": [],
      "stateMutability": "nonpayable",
      "type": "function"
    }
  ],
  "bytecode": "0x60a06040523480156200001157600080fd5b50604051620014af380380620014af8339810160408190526200003491620003ea565b3360405180604001604052806009815260200168141a59d9de58d95b1b60ba1b81525060405180604001604052806005815260200164504947475960d81b815250601280838381600390816200008b9190620004cb565b5060046200009a8282620004cb565b50505060ff166080525050506001600160a01b038116620000d657604051631e4fbdf760e01b8152600060048201526024015b60405180910390fd5b620000e18162000227565b506001600160a01b0382166200013a5760405162461bcd60e51b815260206004820152601c60248201527f4f776e65722063616e6e6f74206265207a65726f2061646472657373000000006044820152606401620000cd565b600081116200019d5760405162461bcd60e51b815260206004820152602860248201527f496e697469616c20737570706c79206d7573742062652067726561746572207460448201526768616e207a65726f60c01b6064820152608401620000cd565b6a52b7d2dcc80cd2e4000000811115620002085760405162461bcd60e51b815260206004820152602560248201527f496e697469616c20737570706c792065786365656473206d6178696d756d20736044820152647570706c7960d81b6064820152608401620000cd565b620002138262000227565b6200021f828262000279565b5050620005bf565b600580546001600160a01b038381166001600160a01b0319831681179093556040519116919082907f8be0079c531659141344cd1fd0a4f28419497f9722a3daafe3b4186f6b6457e090600090a35050565b6001600160a01b038216620002a55760405163ec442f0560e01b815260006004820152602401620000cd565b620002b360008383620002b7565b5050565b6001600160a01b038316620002e6578060026000828254620002da919062000597565b909155506200035a9050565b6001600160a01b038316600090815260208190526040902054818110156200033b5760405163391434e360e21b81526001600160a01b03851660048201526024810182905260448101839052606401620000cd565b6001600160a01b03841660009081526020819052604090209082900390555b6001600160a01b038216620003785760028054829003905562000397565b6001600160a01b03821660009081526020819052604090208054820190555b816001600160a01b0316836001600160a01b03167fddf252ad1be2c89b69c2b068fc378daa952ba7f163c4a11628f55a4df523b3ef83604051620003dd91815260200190565b60405180910390a3505050565b60008060408385031215620003fe57600080fd5b82516001600160a01b03811681146200041657600080fd5b6020939093015192949293505050565b634e487b7160e01b600052604160045260246000fd5b600181811c908216806200045157607f821691505b6020821081036200047257634e487b7160e01b600052602260045260246000fd5b50919050565b601f821115620004c657600081815260208120601f850160051c81016020861015620004a15750805b601f850160051c820191505b81811015620004c257828155600101620004ad565b5050505b505050565b81516001600160401b03811115620004e757620004e762000426565b620004ff81620004f884546200043c565b8462000478565b602080601f8311600181146200053757600084156200051e5750858301515b600019600386901b1c1916600185901b178555620004c2565b600085815260208120601f198616915b82811015620005685788860151825594840194600190910190840162000547565b5085821015620005875787850151600019600388901b60f8161c191681555b5050505050600190811b01905550565b80820180821115620005b957634e487b7160e01b600052601160045260246000fd5b92915050565b608051610ed4620005db60003960006101d60152610ed46000f3fe608060405234801561001057600080fd5b506004361061012c5760003560e01c806370a08231116100ad57806395d89b411161007157806395d89b41146102ad578063a9059cbb146102b5578063dd62ed3e146102c8578063f2fde38b14610301578063fe9fbb801461031457600080fd5b806370a0823114610238578063715018a614610261578063893d20e81461026957806389fabc80146102895780638da5cb5b1461029c57600080fd5b806323b872dd116100f457806323b872dd146101bc578063313ce567146101cf57806332cb6b0c1461020057806340c10f191461021257806342966c681461022557600080fd5b806306fdde0314610131578063095ea7b31461014f578063177d2a741461017257806318160ddd146101875780631828983a14610199575b600080fd5b610139610327565b6040516101469190610d05565b60405180910390f35b61016261015d366004610d6f565b6103b9565b6040519015158152602001610146565b610185610180366004610d99565b6103d3565b005b6002545b604051908152602001610146565b6101626101a7366004610d99565b60066020526000908152604090205460ff1681565b6101626101ca366004610dbb565b6104eb565b60405160ff7f0000000000000000000000000000000000000000000000000000000000000000168152602001610146565b61018b6a52b7d2dcc80cd2e400000081565b610185610220366004610d6f565b61050f565b610185610233366004610df7565b6106cf565b61018b610246366004610d99565b6001600160a01b031660009081526020819052604090205490565b6101856107b9565b6102716107cd565b6040516001600160a01b039091168152602001610146565b610185610297366004610d99565b6107e6565b6005546001600160a01b0316610271565b610139610895565b6101626102c3366004610d6f565b6108a4565b61018b6102d6366004610e10565b6001600160a01b03918216600090815260016020908152604080832093909416825291909152205490565b61018561030f366004610d99565b6108b2565b610162610322366004610d99565b6108f0565b60606003805461033690610e43565b80601f016020809104026020016040519081016040528092919081815260200182805461036290610e43565b80156103af5780601f10610384576101008083540402835291602001916103af565b820191906000526020600020905b81548152906001019060200180831161039257829003601f168201915b5050505050905090565b6000336103c7818585610927565b60019150505b92915050565b6103db610939565b6001600160a01b0381166104365760405162461bcd60e51b815260206004820152601760248201527f43616e6e6f7420616464207a65726f206164647265737300000000000000000060448201526064015b60405180910390fd5b6001600160a01b03811660009081526006602052604090205460ff161561049f5760405162461bcd60e51b815260206004820152601760248201527f5573657220616c726561647920617574686f72697a6564000000000000000000604482015260640161042d565b6001600160a01b038116600081815260066020526040808220805460ff19166001179055517f7e07c71a6d7714652e08d641a843dff01e823c8eeed08945be844015fe3353939190a250565b6000336104f9858285610966565b6105048585856109e5565b506001949350505050565b3360009081526006602052604090205460ff168061053757506005546001600160a01b031633145b6105745760405162461bcd60e51b815260206004820152600e60248201526d139bdd08185d5d1a1bdc9a5e995960921b604482015260640161042d565b6001600160a01b0382166105ca5760405162461bcd60e51b815260206004820152601b60248201527f43616e6e6f74206d696e7420746f207a65726f20616464726573730000000000604482015260640161042d565b6000811161061a5760405162461bcd60e51b815260206004820181905260248201527f416d6f756e74206d7573742062652067726561746572207468616e207a65726f604482015260640161042d565b6a52b7d2dcc80cd2e40000008161063060025490565b61063a9190610e7d565b11156106815760405162461bcd60e51b815260206004820152601660248201527545786365656473206d6178696d756d20737570706c7960501b604482015260640161042d565b61068b8282610a44565b6040518181526001600160a01b0383169033907fbf67ec129007be07f346d9d2933215293a6612ce7ff17d6b479a5a5cae72890c9060200160405180910390a35050565b6000811161071f5760405162461bcd60e51b815260206004820181905260248201527f416d6f756e74206d7573742062652067726561746572207468616e207a65726f604482015260640161042d565b336000908152602081905260409020548111156107755760405162461bcd60e51b8152602060048201526014602482015273496e73756666696369656e742062616c616e636560601b604482015260640161042d565b61077f3382610a7e565b604051818152339081907f857ac1c9e97cc66ecae5f524c9c611463ae748b85af3ca454a5ec4d7d341924d9060200160405180910390a350565b6107c1610939565b6107cb6000610ab4565b565b60006107e16005546001600160a01b031690565b905090565b6107ee610939565b6001600160a01b03811660009081526006602052604090205460ff1661084c5760405162461bcd60e51b8152602060048201526013602482015272155cd95c881b9bdd08185d5d1a1bdc9a5e9959606a1b604482015260640161042d565b6001600160a01b038116600081815260066020526040808220805460ff19169055517f0bece08ee0f89f13f32c18b4d128aa51d03a53f8543317a83a924d5785f781e09190a250565b60606004805461033690610e43565b6000336103c78185856109e5565b6108ba610939565b6001600160a01b0381166108e457604051631e4fbdf760e01b81526000600482015260240161042d565b6108ed81610ab4565b50565b6001600160a01b03811660009081526006602052604081205460ff16806103cd5750506005546001600160a01b0391821691161490565b6109348383836001610b06565b505050565b6005546001600160a01b031633146107cb5760405163118cdaa760e01b815233600482015260240161042d565b6001600160a01b038381166000908152600160209081526040808320938616835292905220546000198110156109df57818110156109d057604051637dc7a0d960e11b81526001600160a01b0384166004820152602481018290526044810183905260640161042d565b6109df84848484036000610b06565b50505050565b6001600160a01b038316610a0f57604051634b637e8f60e11b81526000600482015260240161042d565b6001600160a01b038216610a395760405163ec442f0560e01b81526000600482015260240161042d565b610934838383610bdb565b6001600160a01b038216610a6e5760405163ec442f0560e01b81526000600482015260240161042d565b610a7a60008383610bdb565b5050565b6001600160a01b038216610aa857604051634b637e8f60e11b81526000600482015260240161042d565b610a7a82600083610bdb565b600580546001600160a01b038381166001600160a01b0319831681179093556040519116919082907f8be0079c531659141344cd1fd0a4f28419497f9722a3daafe3b4186f6b6457e090600090a35050565b6001600160a01b038416610b305760405163e602df0560e01b81526000600482015260240161042d565b6001600160a01b038316610b5a57604051634a1406b160e11b81526000600482015260240161042d565b6001600160a01b03808516600090815260016020908152604080832093871683529290522082905580156109df57826001600160a01b0316846001600160a01b03167f8c5be1e5ebec7d5bd14f71427d1e84f3dd0314c0f7b2291e5b200ac8c7c3b92584604051610bcd91815260200190565b60405180910390a350505050565b6001600160a01b038316610c06578060026000828254610bfb9190610e7d565b90915550610c789050565b6001600160a01b03831660009081526020819052604090205481811015610c595760405163391434e360e21b81526001600160a01b0385166004820152602481018290526044810183905260640161042d565b6001600160a01b03841660009081526020819052604090209082900390555b6001600160a01b038216610c9457600280548290039055610cb3565b6001600160a01b03821660009081526020819052604090208054820190555b816001600160a01b0316836001600160a01b03167fddf252ad1be2c89b69c2b068fc378daa952ba7f163c4a11628f55a4df523b3ef83604051610cf891815260200190565b60405180910390a3505050565b600060208083528351808285015260005b81811015610d3257858101830151858201604001528201610d16565b506000604082860101526040601f19601f8301168501019250505092915050565b80356001600160a01b0381168114610d6a57600080fd5b919050565b60008060408385031215610d8257600080fd5b610d8b83610d53565b946020939093013593505050565b600060208284031215610dab57600080fd5b610db482610d53565b9392505050565b600080600060608486031215610dd057600080fd5b610dd984610d53565b9250610de760208501610d53565b9150604084013590509250925092565b600060208284031215610e0957600080fd5b5035919050565b60008060408385031215610e2357600080fd5b610e2c83610d53565b9150610e3a60208401610d53565b90509250929050565b600181811c90821680610e5757607f821691505b602082108103610e7757634e487b7160e01b600052602260045260246000fd5b50919050565b808201808211156103cd57634e487b7160e01b600052601160045260246000fdfea264697066735822122025ba5b6f699ec63af8e0487b61d59869222d74c7975cd988b43febe7a2d8c44264736f6c63430008140033",
  "linkReferences": {},
  "deployedLinkReferences": {}
}