{
  "_format": "hh-sol-artifact-1",
  "contractName": "PiggycellToken",
  "sourceName": "contracts/Piggycell.sol",
  "abi": [
    {
      "inputs": [],
      "stateMutability": "nonpayable",
      "type": "constructor"
    },
    {
      "inputs": [
        {
          "internalType": "address",
          "name": "spender",
          "type": "address"
        },
        {
          "internalType": "uint256",
          "name": "allowance",
          "type": "uint256"
        },
        {
          "internalType": "uint256",
          "name": "needed",
          "type": "uint256"
        }
      ],
      "name": "ERC20InsufficientAllowance",
      "type": "error"
    },
    {
      "inputs": [
        {
          "internalType": "address",
          "name": "sender",
          "type": "address"
        },
        {
          "internalType": "uint256",
          "name": "balance",
          "type": "uint256"
        },
        {
          "internalType": "uint256",
          "name": "needed",
          "type": "uint256"
        }
      ],
      "name": "ERC20InsufficientBalance",
      "type": "error"
    },
    {
      "inputs": [
        {
          "internalType": "address",
          "name": "approver",
          "type": "address"
        }
      ],
      "name": "ERC20InvalidApprover",
      "type": "error"
    },
    {
      "inputs": [
        {
          "internalType": "address",
          "name": "receiver",
          "type": "address"
        }
      ],
      "name": "ERC20InvalidReceiver",
      "type": "error"
    },
    {
      "inputs": [
        {
          "internalType": "address",
          "name": "sender",
          "type": "address"
        }
      ],
      "name": "ERC20InvalidSender",
      "type": "error"
    },
    {
      "inputs": [
        {
          "internalType": "address",
          "name": "spender",
          "type": "address"
        }
      ],
      "name": "ERC20InvalidSpender",
      "type": "error"
    },
    {
      "inputs": [
        {
          "internalType": "address",
          "name": "owner",
          "type": "address"
        }
      ],
      "name": "OwnableInvalidOwner",
      "type": "error"
    },
    {
      "inputs": [
        {
          "internalType": "address",
          "name": "account",
          "type": "address"
        }
      ],
      "name": "OwnableUnauthorizedAccount",
      "type": "error"
    },
    {
      "anonymous": false,
      "inputs": [
        {
          "indexed": true,
          "internalType": "address",
          "name": "owner",
          "type": "address"
        },
        {
          "indexed": true,
          "internalType": "address",
          "name": "spender",
          "type": "address"
        },
        {
          "indexed": false,
          "internalType": "uint256",
          "name": "value",
          "type": "uint256"
        }
      ],
      "name": "Approval",
      "type": "event"
    },
    {
      "anonymous": false,
      "inputs": [
        {
          "indexed": true,
          "internalType": "address",
          "name": "oldImplementation",
          "type": "address"
        },
        {
          "indexed": true,
          "internalType": "address",
          "name": "newImplementation",
          "type": "address"
        }
      ],
      "name": "ImplementationUpgraded",
      "type": "event"
    },
    {
      "anonymous": false,
      "inputs": [
        {
          "indexed": true,
          "internalType": "address",
          "name": "previousOwner",
          "type": "address"
        },
        {
          "indexed": true,
          "internalType": "address",
          "name": "newOwner",
          "type": "address"
        }
      ],
      "name": "OwnershipTransferred",
      "type": "event"
    },
    {
      "anonymous": false,
      "inputs": [
        {
          "indexed": true,
          "internalType": "address",
          "name": "from",
          "type": "address"
        },
        {
          "indexed": true,
          "internalType": "address",
          "name": "to",
          "type": "address"
        },
        {
          "indexed": false,
          "internalType": "uint256",
          "name": "value",
          "type": "uint256"
        }
      ],
      "name": "Transfer",
      "type": "event"
    },
    {
      "inputs": [],
      "name": "MAX_SUPPLY",
      "outputs": [
        {
          "internalType": "uint256",
          "name": "",
          "type": "uint256"
        }
      ],
      "stateMutability": "view",
      "type": "function"
    },
    {
      "inputs": [
        {
          "internalType": "address",
          "name": "owner",
          "type": "address"
        },
        {
          "internalType": "address",
          "name": "spender",
          "type": "address"
        }
      ],
      "name": "allowance",
      "outputs": [
        {
          "internalType": "uint256",
          "name": "",
          "type": "uint256"
        }
      ],
      "stateMutability": "view",
      "type": "function"
    },
    {
      "inputs": [
        {
          "internalType": "address",
          "name": "spender",
          "type": "address"
        },
        {
          "internalType": "uint256",
          "name": "value",
          "type": "uint256"
        }
      ],
      "name": "approve",
      "outputs": [
        {
          "internalType": "bool",
          "name": "",
          "type": "bool"
        }
      ],
      "stateMutability": "nonpayable",
      "type": "function"
    },
    {
      "inputs": [
        {
          "internalType": "address",
          "name": "account",
          "type": "address"
        }
      ],
      "name": "balanceOf",
      "outputs": [
        {
          "internalType": "uint256",
          "name": "",
          "type": "uint256"
        }
      ],
      "stateMutability": "view",
      "type": "function"
    },
    {
      "inputs": [],
      "name": "decimals",
      "outputs": [
        {
          "internalType": "uint8",
          "name": "",
          "type": "uint8"
        }
      ],
      "stateMutability": "view",
      "type": "function"
    },
    {
      "inputs": [],
      "name": "getOwner",
      "outputs": [
        {
          "internalType": "address",
          "name": "",
          "type": "address"
        }
      ],
      "stateMutability": "view",
      "type": "function"
    },
    {
      "inputs": [],
      "name": "implementation",
      "outputs": [
        {
          "internalType": "address",
          "name": "",
          "type": "address"
        }
      ],
      "stateMutability": "view",
      "type": "function"
    },
    {
      "inputs": [
        {
          "internalType": "address",
          "name": "owner",
          "type": "address"
        }
      ],
      "name": "initialize",
      "outputs": [],
      "stateMutability": "nonpayable",
      "type": "function"
    },
    {
      "inputs": [],
      "name": "name",
      "outputs": [
        {
          "internalType": "string",
          "name": "",
          "type": "string"
        }
      ],
      "stateMutability": "view",
      "type": "function"
    },
    {
      "inputs": [],
      "name": "owner",
      "outputs": [
        {
          "internalType": "address",
          "name": "",
          "type": "address"
        }
      ],
      "stateMutability": "view",
      "type": "function"
    },
    {
      "inputs": [],
      "name": "renounceOwnership",
      "outputs": [],
      "stateMutability": "pure",
      "type": "function"
    },
    {
      "inputs": [],
      "name": "symbol",
      "outputs": [
        {
          "internalType": "string",
          "name": "",
          "type": "string"
        }
      ],
      "stateMutability": "view",
      "type": "function"
    },
    {
      "inputs": [],
      "name": "totalSupply",
      "outputs": [
        {
          "internalType": "uint256",
          "name": "",
          "type": "uint256"
        }
      ],
      "stateMutability": "view",
      "type": "function"
    },
    {
      "inputs": [
        {
          "internalType": "address",
          "name": "to",
          "type": "address"
        },
        {
          "internalType": "uint256",
          "name": "value",
          "type": "uint256"
        }
      ],
      "name": "transfer",
      "outputs": [
        {
          "internalType": "bool",
          "name": "",
          "type": "bool"
        }
      ],
      "stateMutability": "nonpayable",
      "type": "function"
    },
    {
      "inputs": [
        {
          "internalType": "address",
          "name": "from",
          "type": "address"
        },
        {
          "internalType": "address",
          "name": "to",
          "type": "address"
        },
        {
          "internalType": "uint256",
          "name": "value",
          "type": "uint256"
        }
      ],
      "name": "transferFrom",
      "outputs": [
        {
          "internalType": "bool",
          "name": "",
          "type": "bool"
        }
      ],
      "stateMutability": "nonpayable",
      "type": "function"
    },
    {
      "inputs": [
        {
          "internalType": "address",
          "name": "",
          "type": "address"
        }
      ],
      "name": "transferOwnership",
      "outputs": [],
      "stateMutability": "pure",
      "type": "function"
    },
    {
      "inputs": [
        {
          "internalType": "address",
          "name": "newImplementation",
          "type": "address"
        }
      ],
      "name": "upgradeImplementation",
      "outputs": [],
      "stateMutability": "nonpayable",
      "type": "function"
    }
  ],
  "bytecode": "0x60806040523480156200001157600080fd5b50600060405180604001604052806009815260200168141a59d9de58d95b1b60ba1b81525060405180604001604052806005815260200164504947475960d81b8152508160039081620000659190620001c9565b506004620000748282620001c9565b5050506001600160a01b038116620000a657604051631e4fbdf760e01b81526000600482015260240160405180910390fd5b620000b181620000d2565b50620000cc6005805461ffff60a01b1916600160a01b179055565b62000295565b600580546001600160a01b038381166001600160a01b0319831681179093556040519116919082907f8be0079c531659141344cd1fd0a4f28419497f9722a3daafe3b4186f6b6457e090600090a35050565b634e487b7160e01b600052604160045260246000fd5b600181811c908216806200014f57607f821691505b6020821081036200017057634e487b7160e01b600052602260045260246000fd5b50919050565b601f821115620001c457600081815260208120601f850160051c810160208610156200019f5750805b601f850160051c820191505b81811015620001c057828155600101620001ab565b5050505b505050565b81516001600160401b03811115620001e557620001e562000124565b620001fd81620001f684546200013a565b8462000176565b602080601f8311600181146200023557600084156200021c5750858301515b600019600386901b1c1916600185901b178555620001c0565b600085815260208120601f198616915b82811015620002665788860151825594840194600190910190840162000245565b5085821015620002855787850151600019600388901b60f8161c191681555b5050505050600190811b01905550565b6116da80620002a56000396000f3fe608060405234801561001057600080fd5b506004361061010b5760003560e01c8063715018a6116100a257806395d89b411161007157806395d89b411461021f578063a9059cbb14610227578063c4d66de81461023a578063dd62ed3e1461024d578063f2fde38b1461028657600080fd5b8063715018a6146101e957806383f94db7146101f3578063893d20e8146102065780638da5cb5b1461020e57600080fd5b8063313ce567116100de578063313ce5671461017657806332cb6b0c146101855780635c60da1b1461019757806370a08231146101c057600080fd5b806306fdde0314610110578063095ea7b31461012e57806318160ddd1461015157806323b872dd14610163575b600080fd5b610118610299565b604051610125919061130a565b60405180910390f35b61014161013c366004611355565b61032b565b6040519015158152602001610125565b6002545b604051908152602001610125565b610141610171366004611381565b610345565b60405160128152602001610125565b6101556a52b7d2dcc80cd2e400000081565b600080516020611685833981519152545b6040516001600160a01b039091168152602001610125565b6101556101ce3660046113c2565b6001600160a01b031660009081526020819052604090205490565b6101f1610369565b005b6101f16102013660046113c2565b6103b6565b6101a8610481565b6005546001600160a01b03166101a8565b61011861049a565b610141610235366004611355565b6104a9565b6101f16102483660046113c2565b6104b7565b61015561025b3660046113e6565b6001600160a01b03918216600090815260016020908152604080832093909416825291909152205490565b6101f16102943660046113c2565b610673565b6060600680546102a89061141f565b80601f01602080910402602001604051908101604052809291908181526020018280546102d49061141f565b80156103215780601f106102f657610100808354040283529160200191610321565b820191906000526020600020905b81548152906001019060200180831161030457829003601f168201915b5050505050905090565b6000336103398185856106bb565b60019150505b92915050565b6000336103538582856106cd565b61035e85858561074c565b506001949350505050565b60405162461bcd60e51b815260206004820152601e60248201527f4f776e6572736869702072656e6f756e63652069732064697361626c6564000060448201526064015b60405180910390fd5b6103be6107ab565b6001600160a01b0381166104265760405162461bcd60e51b815260206004820152602960248201527f4e657720696d706c656d656e746174696f6e2063616e6e6f74206265207a65726044820152686f206164647265737360b81b60648201526084016103ad565b61042f816107da565b6000805160206116858339815191528054908290556040516001600160a01b0380841691908316907f1a5ca99a64512489fd9455e8da426740174107a69292fca0a8b80b08f6f6789290600090a35050565b60006104956005546001600160a01b031690565b905090565b6060600780546102a89061141f565b60003361033981858561074c565b600554600160a01b900460ff16156105285760405162461bcd60e51b815260206004820152602e60248201527f436f6e747261637420696e7374616e63652068617320616c726561647920626560448201526d195b881a5b9a5d1a585b1a5e995960921b60648201526084016103ad565b600554600160a81b900460ff16156105825760405162461bcd60e51b815260206004820152601a60248201527f496e697469616c697a6174696f6e20696e2070726f677265737300000000000060448201526064016103ad565b6005805461ffff60a01b191661010160a01b1790556001600160a01b0381166105ed5760405162461bcd60e51b815260206004820152601c60248201527f4f776e65722063616e6e6f74206265207a65726f20616464726573730000000060448201526064016103ad565b604080518082019091526009815268141a59d9de58d95b1b60ba1b602082015260069061061a90826114bd565b50604080518082019091526005815264504947475960d81b602082015260079061064490826114bd565b5061064e8161105b565b610663816a52b7d2dcc80cd2e40000006110ad565b506005805460ff60a81b19169055565b60405162461bcd60e51b815260206004820152601e60248201527f4f776e657273686970207472616e736665722069732064697361626c6564000060448201526064016103ad565b6106c883838360016110e7565b505050565b6001600160a01b03838116600090815260016020908152604080832093861683529290522054600019811015610746578181101561073757604051637dc7a0d960e11b81526001600160a01b038416600482015260248101829052604481018390526064016103ad565b610746848484840360006110e7565b50505050565b6001600160a01b03831661077657604051634b637e8f60e11b8152600060048201526024016103ad565b6001600160a01b0382166107a05760405163ec442f0560e01b8152600060048201526024016103ad565b6106c88383836111bc565b6005546001600160a01b031633146107d85760405163118cdaa760e01b81523360048201526024016103ad565b565b803b806108335760405162461bcd60e51b815260206004820152602160248201527f496d706c656d656e746174696f6e206d757374206265206120636f6e747261636044820152601d60fa1b60648201526084016103ad565b6064811161088e5760405162461bcd60e51b815260206004820152602260248201527f496d706c656d656e746174696f6e20636f64652073697a6520746f6f20736d616044820152611b1b60f21b60648201526084016103ad565b60008051602061168583398151915280546001600160a01b0381161561090a5760405162461bcd60e51b815260206004820152602b60248201527f496d706c656d656e746174696f6e206d757374206e6f7420626520612070726f60448201526a1e1e4818dbdb9d1c9858dd60aa1b60648201526084016103ad565b600080516020611685833981519152546001600160a01b038082169086160361098f5760405162461bcd60e51b815260206004820152603160248201527f4e657720696d706c656d656e746174696f6e206d7573742062652064696666656044820152701c995b9d08199c9bdb4818dd5c9c995b9d607a1b60648201526084016103ad565b60408051600481526024810182526020810180516001600160e01b03166306fdde0360e01b179052905160009182916001600160a01b038916916109d29161157d565b600060405180830381855afa9150503d8060008114610a0d576040519150601f19603f3d011682016040523d82523d6000602084013e610a12565b606091505b5091509150818015610a25575060008151115b610a845760405162461bcd60e51b815260206004820152602a60248201527f496d706c656d656e746174696f6e206d75737420696d706c656d656e74204552604482015269433230206e616d65282960b01b60648201526084016103ad565b60408051600481526024810182526020810180516001600160e01b03166395d89b4160e01b179052905160009182916001600160a01b038b1691610ac79161157d565b600060405180830381855afa9150503d8060008114610b02576040519150601f19603f3d011682016040523d82523d6000602084013e610b07565b606091505b5091509150818015610b1a575060008151115b610b7b5760405162461bcd60e51b815260206004820152602c60248201527f496d706c656d656e746174696f6e206d75737420696d706c656d656e7420455260448201526b4332302073796d626f6c282960a01b60648201526084016103ad565b600083806020019051810190610b919190611599565b9050600082806020019051810190610ba99190611599565b604080518082019091526009815268141a59d9de58d95b1b60ba1b6020918201528351908401209091507ff2d27d72f11941267d3f53ec5c18e04ddbbd8f787f96ce1ce326eea58217ae88148015610c425750604080518082019091526005815264504947475960d81b6020918201528151908201207f47947ec934c4733f195a904c5c830fa7519b18ac9fef2a3b57e2253b5f84acc3145b610cb45760405162461bcd60e51b815260206004820152603760248201527f496d706c656d656e746174696f6e206d7573742068617665206d61746368696e60448201527f6720746f6b656e206e616d6520616e642073796d626f6c00000000000000000060648201526084016103ad565b60408051600481526024810182526020810180516001600160e01b0316631127a41d60e31b179052905160009182916001600160a01b038f1691610cf79161157d565b600060405180830381855afa9150503d8060008114610d32576040519150601f19603f3d011682016040523d82523d6000602084013e610d37565b606091505b5091509150818015610d4a575060008151115b610dad5760405162461bcd60e51b815260206004820152602e60248201527f496d706c656d656e746174696f6e206d75737420696d706c656d656e7420424560448201526d503230206765744f776e6572282960901b60648201526084016103ad565b600081806020019051810190610dc39190611646565b90506001600160a01b038116610e2f5760405162461bcd60e51b815260206004820152602b60248201527f496d706c656d656e746174696f6e206f776e65722063616e6e6f74206265207a60448201526a65726f206164647265737360a81b60648201526084016103ad565b60008e6001600160a01b031660405160240160405160208183030381529060405263189acdbd60e31b6001600160e01b0319166020820180516001600160e01b038381831617835250505050604051610e88919061157d565b600060405180830381855afa9150503d8060008114610ec3576040519150601f19603f3d011682016040523d82523d6000602084013e610ec8565b606091505b5050905080610f375760405162461bcd60e51b815260206004820152603560248201527f496d706c656d656e746174696f6e206d757374206861766520696e697469616c60448201527434bd329430b2323932b9b99490333ab731ba34b7b760591b60648201526084016103ad565b60008f6001600160a01b03166040516024016040516020818303038152906040526383f94db760e01b6001600160e01b0319166020820180516001600160e01b038381831617835250505050604051610f90919061157d565b600060405180830381855afa9150503d8060008114610fcb576040519150601f19603f3d011682016040523d82523d6000602084013e610fd0565b606091505b5050905080611049576040805162461bcd60e51b81526020600482015260248101919091527f496d706c656d656e746174696f6e206d7573742068617665207570677261646560448201527f496d706c656d656e746174696f6e2861646472657373292066756e6374696f6e60648201526084016103ad565b50505050505050505050505050505050565b600580546001600160a01b038381166001600160a01b0319831681179093556040519116919082907f8be0079c531659141344cd1fd0a4f28419497f9722a3daafe3b4186f6b6457e090600090a35050565b6001600160a01b0382166110d75760405163ec442f0560e01b8152600060048201526024016103ad565b6110e3600083836111bc565b5050565b6001600160a01b0384166111115760405163e602df0560e01b8152600060048201526024016103ad565b6001600160a01b03831661113b57604051634a1406b160e11b8152600060048201526024016103ad565b6001600160a01b038085166000908152600160209081526040808320938716835292905220829055801561074657826001600160a01b0316846001600160a01b03167f8c5be1e5ebec7d5bd14f71427d1e84f3dd0314c0f7b2291e5b200ac8c7c3b925846040516111ae91815260200190565b60405180910390a350505050565b6001600160a01b0383166111e75780600260008282546111dc9190611663565b909155506112599050565b6001600160a01b0383166000908152602081905260409020548181101561123a5760405163391434e360e21b81526001600160a01b038516600482015260248101829052604481018390526064016103ad565b6001600160a01b03841660009081526020819052604090209082900390555b6001600160a01b03821661127557600280548290039055611294565b6001600160a01b03821660009081526020819052604090208054820190555b816001600160a01b0316836001600160a01b03167fddf252ad1be2c89b69c2b068fc378daa952ba7f163c4a11628f55a4df523b3ef836040516112d991815260200190565b60405180910390a3505050565b60005b838110156113015781810151838201526020016112e9565b50506000910152565b60208152600082518060208401526113298160408501602087016112e6565b601f01601f19169190910160400192915050565b6001600160a01b038116811461135257600080fd5b50565b6000806040838503121561136857600080fd5b82356113738161133d565b946020939093013593505050565b60008060006060848603121561139657600080fd5b83356113a18161133d565b925060208401356113b18161133d565b929592945050506040919091013590565b6000602082840312156113d457600080fd5b81356113df8161133d565b9392505050565b600080604083850312156113f957600080fd5b82356114048161133d565b915060208301356114148161133d565b809150509250929050565b600181811c9082168061143357607f821691505b60208210810361145357634e487b7160e01b600052602260045260246000fd5b50919050565b634e487b7160e01b600052604160045260246000fd5b601f8211156106c857600081815260208120601f850160051c810160208610156114965750805b601f850160051c820191505b818110156114b5578281556001016114a2565b505050505050565b815167ffffffffffffffff8111156114d7576114d7611459565b6114eb816114e5845461141f565b8461146f565b602080601f83116001811461152057600084156115085750858301515b600019600386901b1c1916600185901b1785556114b5565b600085815260208120601f198616915b8281101561154f57888601518255948401946001909101908401611530565b508582101561156d5787850151600019600388901b60f8161c191681555b5050505050600190811b01905550565b6000825161158f8184602087016112e6565b9190910192915050565b6000602082840312156115ab57600080fd5b815167ffffffffffffffff808211156115c357600080fd5b818401915084601f8301126115d757600080fd5b8151818111156115e9576115e9611459565b604051601f8201601f19908116603f0116810190838211818310171561161157611611611459565b8160405282815287602084870101111561162a57600080fd5b61163b8360208301602088016112e6565b979650505050505050565b60006020828403121561165857600080fd5b81516113df8161133d565b8082018082111561033f57634e487b7160e01b600052601160045260246000fdfe360894a13ba1a3210667c828492db98dca3e2076cc3735a920a3ca505d382bbca2646970667358221220c67a7e11a679ead76ab05346d26defc7cb6968ad0f2291ed8d44ee706a7059dc64736f6c63430008140033",
  "linkReferences": {},
  "deployedLinkReferences": {}
}